:100000000C9434000C9451000C9494000C94510006
:100010000C9451000C9451000C9451000C9451001C
:100020000C9451000C9451000C9451000C9451000C
:100030000C9451000C9451000C9451000C945100FC
:100040000C9451000C9451000C9451000C945100EC
:100050000C9451000C9451000C9451000C945100DC
:100060000C9451000C94510011241FBECFEFD8E026
:10007000DEBFCDBF11E0A0E0B1E0EEEEF2E002C0E5
:1000800005900D92AA35B107D9F711E0AAE5B1E0C4
:1000900001C01D92AC35B107E1F70E94E4000C9459
:1000A00075010C94000080937C00EAE7F0E0808109
:1000B000836880830895EAE7F0E08081806480832C
:1000C000808186FDFDCF2091780030917900822FCC
:1000D000932F99230CF40196959587950895CF93C6
:1000E000DF93DC01E1ECF0E0808188618083E2EC69
:1000F000F0E080818660808383E390E09093C50088
:100100008093C4008C91882361F01196C6ECD0E0F6
:10011000E0ECF0E08883808185FFFDCF8D9188231E
:10012000C9F7DF91CF9108951F920F920FB60F92EA
:1001300011242F933F934F935F936F937F938F93EC
:100140009F93AF93BF93EF93FF939BB180E4892775
:100150008BB980915A0190915B01019690935B015C
:1001600080935A0180E091E00E946F0080915A01D3
:1001700090915B0180FD05C089E191E00E946F00D4
:1001800004C08BE291E00E946F00FF91EF91BF915C
:10019000AF919F918F917F916F915F914F913F911F
:1001A0002F910F900FBE0F901F9018958FB78F77DC
:1001B0008FBFE9E6F0E0808181608083E99A8FB7A4
:1001C00080688FBF78940895CF93DF93CDB7DEB763
:1001D0006C970FB6F894DEBF0FBECDBFDE0114964C
:1001E000E0E4F1E086E101900D928150E1F7FE013B
:1001F0007A9683E0DF011D928A95E9F78FEF84B943
:1002000053985B9A3898409A8AB182648AB95E980A
:100210000E94D60080E00E9453000CE311E00E948F
:100220005B0085B90E945B00BE016F5F7F4F4AE0B3
:1002300050E00E943001CE0104960E946F00CE0172
:1002400001960E946F00C8010E946F008FEB97E239
:10025000A9E081509040A040E1F700C00000DFCF4E
:10026000FB019F01E8944230C4F04532B4F44A30B7
:1002700029F497FB1EF4909581959F4F642F772763
:100280000E946101805D8A330CF0895D8193CB010E
:100290000097A1F716F45DE251931082C9010C9406
:1002A0005101DC01FC01672F71917723E1F732974F
:1002B00004C07C916D9370836291AE17BF07C8F341
:1002C0000895AA1BBB1B51E107C0AA1FBB1FA6179D
:1002D000B70710F0A61BB70B881F991F5A95A9F7EF
:0E02E00080959095BC01CD010895F894FFCF54
:1002EE002054686520737769746368206973207081
:1002FE007265737365642C200020546865204C650C
:10030E0064206973204F4646202E002054686520D5
:10031E004C6564206973204F4E202E00202E200045
:10032E0020205468652054656D7065726174757215
:0A033E006520697320000000000034
:00000001FF
